{
  "contractName": "FileStorage",
  "abi": [
    {
      "inputs": [
        {
          "internalType": "address",
          "name": "",
          "type": "address"
        },
        {
          "internalType": "uint256",
          "name": "",
          "type": "uint256"
        }
      ],
      "name": "userFiles",
      "outputs": [
        {
          "internalType": "string",
          "name": "fileHash",
          "type": "string"
        },
        {
          "internalType": "uint256",
          "name": "timestamp",
          "type": "uint256"
        }
      ],
      "stateMutability": "view",
      "type": "function",
      "constant": true
    },
    {
      "inputs": [
        {
          "internalType": "string",
          "name": "fileHash",
          "type": "string"
        }
      ],
      "name": "storeFile",
      "outputs": [],
      "stateMutability": "nonpayable",
      "type": "function"
    },
    {
      "inputs": [
        {
          "internalType": "address",
          "name": "user",
          "type": "address"
        }
      ],
      "name": "getFileCount",
      "outputs": [
        {
          "internalType": "uint256",
          "name": "",
          "type": "uint256"
        }
      ],
      "stateMutability": "view",
      "type": "function",
      "constant": true
    },
    {
      "inputs": [
        {
          "internalType": "address",
          "name": "user",
          "type": "address"
        },
        {
          "internalType": "uint256",
          "name": "index",
          "type": "uint256"
        }
      ],
      "name": "getFile",
      "outputs": [
        {
          "internalType": "string",
          "name": "",
          "type": "string"
        },
        {
          "internalType": "uint256",
          "name": "",
          "type": "uint256"
        }
      ],
      "stateMutability": "view",
      "type": "function",
      "constant": true
    }
  ],
  "bytecode": "0x608060405234801561001057600080fd5b506108cc806100206000396000f3fe608060405234801561001057600080fd5b506004361061004c5760003560e01c8063718f38a614610051578063bfeb163314610082578063e602406a146100b3578063fa001d7b146100cf575b600080fd5b61006b60048036038101906100669190610528565b6100ff565b604051610079929190610610565b60405180910390f35b61009c60048036038101906100979190610528565b6101c8565b6040516100aa929190610610565b60405180910390f35b6100cd60048036038101906100c89190610775565b6102ea565b005b6100e960048036038101906100e491906107be565b610392565b6040516100f691906107eb565b60405180910390f35b6000602052816000526040600020818154811061011b57600080fd5b90600052602060002090600202016000915091505080600001805461013f90610835565b80601f016020809104026020016040519081016040528092919081815260200182805461016b90610835565b80156101b85780601f1061018d576101008083540402835291602001916101b8565b820191906000526020600020905b81548152906001019060200180831161019b57829003601f168201915b5050505050908060010154905082565b60606000806000808673ffffffffffffffffffffffffffffffffffffffff1673ffffffffffffffffffffffffffffffffffffffff168152602001908152602001600020848154811061021d5761021c610867565b5b906000526020600020906002020160405180604001604052908160008201805461024690610835565b80601f016020809104026020016040519081016040528092919081815260200182805461027290610835565b80156102bf5780601f10610294576101008083540402835291602001916102bf565b820191906000526020600020905b8154815290600101906020018083116102a257829003601f168201915b5050505050815260200160018201548152505090508060000151816020015192509250509250929050565b6000803373ffffffffffffffffffffffffffffffffffffffff1673ffffffffffffffffffffffffffffffffffffffff168152602001908152602001600020604051806040016040528083815260200142815250908060018154018082558091505060019003906000526020600020906002020160009091909190915060008201518160000190805190602001906103829291906103dd565b5060208201518160010155505050565b60008060008373ffffffffffffffffffffffffffffffffffffffff1673ffffffffffffffffffffffffffffffffffffffff168152602001908152602001600020805490509050919050565b8280546103e990610835565b90600052602060002090601f01602090048101928261040b5760008555610452565b82601f1061042457805160ff1916838001178555610452565b82800160010185558215610452579182015b82811115610451578251825591602001919060010190610436565b5b50905061045f9190610463565b5090565b5b8082111561047c576000816000905550600101610464565b5090565b6000604051905090565b600080fd5b600080fd5b600073ffffffffffffffffffffffffffffffffffffffff82169050919050565b60006104bf82610494565b9050919050565b6104cf816104b4565b81146104da57600080fd5b50565b6000813590506104ec816104c6565b92915050565b6000819050919050565b610505816104f2565b811461051057600080fd5b50565b600081359050610522816104fc565b92915050565b6000806040838503121561053f5761053e61048a565b5b600061054d858286016104dd565b925050602061055e85828601610513565b9150509250929050565b600081519050919050565b600082825260208201905092915050565b60005b838110156105a2578082015181840152602081019050610587565b838111156105b1576000848401525b50505050565b6000601f19601f8301169050919050565b60006105d382610568565b6105dd8185610573565b93506105ed818560208601610584565b6105f6816105b7565b840191505092915050565b61060a816104f2565b82525050565b6000604082019050818103600083015261062a81856105c8565b90506106396020830184610601565b9392505050565b600080fd5b600080fd5b7f4e487b7100000000000000000000000000000000000000000000000000000000600052604160045260246000fd5b610682826105b7565b810181811067ffffffffffffffff821117156106a1576106a061064a565b5b80604052505050565b60006106b4610480565b90506106c08282610679565b919050565b600067ffffffffffffffff8211156106e0576106df61064a565b5b6106e9826105b7565b9050602081019050919050565b82818337600083830152505050565b6000610718610713846106c5565b6106aa565b90508281526020810184848401111561073457610733610645565b5b61073f8482856106f6565b509392505050565b600082601f83011261075c5761075b610640565b5b813561076c848260208601610705565b91505092915050565b60006020828403121561078b5761078a61048a565b5b600082013567ffffffffffffffff8111156107a9576107a861048f565b5b6107b584828501610747565b91505092915050565b6000602082840312156107d4576107d361048a565b5b60006107e2848285016104dd565b91505092915050565b60006020820190506108006000830184610601565b92915050565b7f4e487b7100000000000000000000000000000000000000000000000000000000600052602260045260246000fd5b6000600282049050600182168061084d57607f821691505b6020821081141561086157610860610806565b5b50919050565b7f4e487b7100000000000000000000000000000000000000000000000000000000600052603260045260246000fdfea2646970667358221220061cfa41fe6b8ff8f95a1ab758e5c3a73c3ff037e138e72154a06b42009f3c3064736f6c634300080a0033",
  "immutableReferences": {},
  "source": "// SPDX-License-Identifier: MIT\r\npragma solidity ^0.8.0;\r\n\r\ncontract FileStorage {\r\n    struct FileData {\r\n        string fileHash;\r\n        uint256 timestamp;\r\n    }\r\n\r\n    mapping(address => FileData[]) public userFiles;\r\n\r\n    // Store a new file hash with timestamp\r\n    function storeFile(string memory fileHash) public {\r\n        userFiles[msg.sender].push(FileData(fileHash, block.timestamp));\r\n    }\r\n\r\n    // Get the count of stored files for a user\r\n    function getFileCount(address user) public view returns (uint256) {\r\n        return userFiles[user].length; // Return the length of the user's file array\r\n    }\r\n\r\n    // Get a specific file's data for a user\r\n    function getFile(address user, uint256 index) public view returns (string memory, uint256) {\r\n        FileData memory file = userFiles[user][index];\r\n        return (file.fileHash, file.timestamp); // Return the file hash and timestamp\r\n    }\r\n}\r\n",
  "sourcePath": "C:\\Users\\PRANAV\\OneDrive\\Desktop\\pdf-on-blockchain\\contracts\\FileStorage.sol",
  "compiler": {
    "name": "solc",
    "version": "0.8.10+commit.fc410830.Emscripten.clang"
  },
  "schemaVersion": "3.4.16",
  "updatedAt": "2024-10-13T07:32:51.909Z",
  "networkType": "ethereum",
  "devdoc": {
    "kind": "dev",
    "methods": {},
    "version": 1
  },
  "userdoc": {
    "kind": "user",
    "methods": {},
    "version": 1
  }
}